{
  "contractName": "spsls",
  "abi": [
    {
      "constant": true,
      "inputs": [],
      "name": "owner",
      "outputs": [
        {
          "name": "",
          "type": "address"
        }
      ],
      "payable": false,
      "stateMutability": "view",
      "type": "function"
    },
    {
      "inputs": [],
      "payable": false,
      "stateMutability": "nonpayable",
      "type": "constructor"
    },
    {
      "constant": false,
      "inputs": [
        {
          "name": "choice",
          "type": "uint256"
        }
      ],
      "name": "new_game",
      "outputs": [
        {
          "name": "id",
          "type": "uint256"
        }
      ],
      "payable": true,
      "stateMutability": "payable",
      "type": "function"
    },
    {
      "constant": false,
      "inputs": [
        {
          "name": "_id",
          "type": "uint256"
        }
      ],
      "name": "join_game",
      "outputs": [
        {
          "name": "status_game",
          "type": "uint256"
        }
      ],
      "payable": true,
      "stateMutability": "payable",
      "type": "function"
    },
    {
      "constant": false,
      "inputs": [
        {
          "name": "win1",
          "type": "uint256"
        }
      ],
      "name": "return_winner",
      "outputs": [
        {
          "name": "win2",
          "type": "uint256"
        }
      ],
      "payable": false,
      "stateMutability": "nonpayable",
      "type": "function"
    },
    {
      "constant": false,
      "inputs": [
        {
          "name": "_id",
          "type": "uint256"
        }
      ],
      "name": "get_winner",
      "outputs": [
        {
          "name": "win",
          "type": "uint256"
        }
      ],
      "payable": true,
      "stateMutability": "payable",
      "type": "function"
    },
    {
      "constant": false,
      "inputs": [
        {
          "name": "_id",
          "type": "uint256"
        },
        {
          "name": "value",
          "type": "uint256"
        },
        {
          "name": "key",
          "type": "uint256"
        }
      ],
      "name": "move",
      "outputs": [],
      "payable": false,
      "stateMutability": "nonpayable",
      "type": "function"
    },
    {
      "constant": false,
      "inputs": [
        {
          "name": "_id",
          "type": "uint256"
        },
        {
          "name": "value",
          "type": "uint256"
        },
        {
          "name": "key",
          "type": "uint256"
        }
      ],
      "name": "reveal",
      "outputs": [],
      "payable": true,
      "stateMutability": "payable",
      "type": "function"
    }
  ],
  "bytecode": "0x608060405234801561001057600080fd5b50336000806101000a81548173ffffffffffffffffffffffffffffffffffffffff021916908373ffffffffffffffffffffffffffffffffffffffff16021790555060006002819055506117d0806100686000396000f3fe6080604052600436106100705760003560e01c806369e2a4a11161004e57806369e2a4a1146101485780638da5cb5b1461018a578063f61d9192146101e1578063fa7c9bcf1461022357610070565b8063243dc4091461007557806334251868146100b75780634a7b26ec14610106575b600080fd5b6100a16004803603602081101561008b57600080fd5b8101908080359060200190929190505050610272565b6040518082815260200191505060405180910390f35b3480156100c357600080fd5b506100f0600480360360208110156100da57600080fd5b8101908080359060200190929190505050610720565b6040518082815260200191505060405180910390f35b6101326004803603602081101561011c57600080fd5b810190808035906020019092919050505061072a565b6040518082815260200191505060405180910390f35b6101746004803603602081101561015e57600080fd5b810190808035906020019092919050505061089f565b6040518082815260200191505060405180910390f35b34801561019657600080fd5b5061019f610bbb565b604051808273ffffffffffffffffffffffffffffffffffffffff1673ffffffffffffffffffffffffffffffffffffffff16815260200191505060405180910390f35b610221600480360360608110156101f757600080fd5b81019080803590602001909291908035906020019092919080359060200190929190505050610be0565b005b34801561022f57600080fd5b506102706004803603606081101561024657600080fd5b81019080803590602001909291908035906020019092919080359060200190929190505050611071565b005b6000600380600084815260200190815260200160002060020154101561029757600080fd5b600160036000848152602001908152602001600020601201819055506000600190505b600a81116103a35760016003600085815260200190815260200160002060030182600b81106102e557fe5b01541415610318576003600084815260200190815260200160002060130160008154809291906001019190505550610396565b60026003600085815260200190815260200160002060030182600b811061033b57fe5b0154141561036e576003600084815260200190815260200160002060140160008154809291906001019190505550610395565b60036000848152602001908152602001600020601701600081548092919060010191905055505b5b80806001019150506102ba565b50600160036000848152602001908152602001600020601a015414156105c057600360008381526020019081526020016000206014015460036000848152602001908152602001600020601301541115610485576003600083815260200190815260200160002060000160009054906101000a900473ffffffffffffffffffffffffffffffffffffffff1673ffffffffffffffffffffffffffffffffffffffff166108fc671bc16d674ec800009081150290604051600060405180830381858888f1935050505015801561047b573d6000803e3d6000fd5b506001905061071b565b600360008381526020019081526020016000206014015460036000848152602001908152602001600020601301541015610547576003600083815260200190815260200160002060010160009054906101000a900473ffffffffffffffffffffffffffffffffffffffff1673ffffffffffffffffffffffffffffffffffffffff166108fc671bc16d674ec800009081150290604051600060405180830381858888f1935050505015801561053d573d6000803e3d6000fd5b506002905061071b565b6000809054906101000a900473ffffffffffffffffffffffffffffffffffffffff1673ffffffffffffffffffffffffffffffffffffffff166108fc671bc16d674ec800009081150290604051600060405180830381858888f193505050501580156105b6573d6000803e3d6000fd5b506003905061071b565b600260036000848152602001908152602001600020601a0154141561071a576003600083815260200190815260200160002060140154600360008481526020019081526020016000206013015411156106a1576003600083815260200190815260200160002060000160009054906101000a900473ffffffffffffffffffffffffffffffffffffffff1673ffffffffffffffffffffffffffffffffffffffff166108fc671bc16d674ec800009081150290604051600060405180830381858888f19350505050158015610697573d6000803e3d6000fd5b506001905061071b565b6000809054906101000a900473ffffffffffffffffffffffffffffffffffffffff1673ffffffffffffffffffffffffffffffffffffffff166108fc671bc16d674ec800009081150290604051600060405180830381858888f19350505050158015610710573d6000803e3d6000fd5b506003905061071b565b5b919050565b6000819050919050565b60008060009054906101000a900473ffffffffffffffffffffffffffffffffffffffff1673ffffffffffffffffffffffffffffffffffffffff163373ffffffffffffffffffffffffffffffffffffffff16141561078657600080fd5b81600254101561079557600080fd5b600160036000848152602001908152602001600020601a0154146107b857600080fd5b600073ffffffffffffffffffffffffffffffffffffffff166003600084815260200190815260200160002060010160009054906101000a900473ffffffffffffffffffffffffffffffffffffffff1673ffffffffffffffffffffffffffffffffffffffff16141561089557670de0b6b3a7640000341461083757600080fd5b336003600084815260200190815260200160002060010160006101000a81548173ffffffffffffffffffffffffffffffffffffffff021916908373ffffffffffffffffffffffffffffffffffffffff1602179055506001905061089a565b600090505b919050565b6000670de0b6b3a764000034146108b557600080fd5b6000809054906101000a900473ffffffffffffffffffffffffffffffffffffffff1673ffffffffffffffffffffffffffffffffffffffff163373ffffffffffffffffffffffffffffffffffffffff16141561090f57600080fd5b610917611651565b600260008154809291906001019190505550600181604001818152505033816000019073ffffffffffffffffffffffffffffffffffffffff16908173ffffffffffffffffffffffffffffffffffffffff168152505060008090505b600a8110156109a3576000826060015182600b811061098d57fe5b6020020181815250508080600101915050610972565b50600a816080018181525050600a8160e00181815250506000816101200181815250506000816101400181815250506000816101a001818152505060008160a001818152505060008160c0018181525050600a816101c0018181525050600a816101e001818152505060008161010001818152505060008161026001818152505082816102000181815250506001816102200181815250508060036000600254815260200190815260200160002060008201518160000160006101000a81548173ffffffffffffffffffffffffffffffffffffffff021916908373ffffffffffffffffffffffffffffffffffffffff16021790555060208201518160010160006101000a81548173ffffffffffffffffffffffffffffffffffffffff021916908373ffffffffffffffffffffffffffffffffffffffff1602179055506040820151816002015560608201518160030190600b610b0092919061171c565b50608082015181600e015560a082015181600f015560c0820151816010015560e08201518160110155610100820151816012015561012082015181601301556101408201518160140155610160820151816015015561018082015181601601556101a082015181601701556101c082015181601801556101e0820151816019015561020082015181601a015561022082015181601b015561024082015181601c015561026082015181601d0155905050600254915050919050565b6000809054906101000a900473ffffffffffffffffffffffffffffffffffffffff1681565b600080600a9050600260036000878152602001908152602001600020601d015414610c0a57600080fd5b6003600086815260200190815260200160002060000160009054906101000a900473ffffffffffffffffffffffffffffffffffffffff1673ffffffffffffffffffffffffffffffffffffffff163373ffffffffffffffffffffffffffffffffffffffff161415610d4c57828401604051602001808281526020019150506040516020818303038152906040528051906020012060001c60036000878152602001908152602001600020601801541415610cf957600160036000878152602001908152602001600020600f01819055508360036000878152602001908152602001600020600e0181905550610d47565b828401604051602001808281526020019150506040516020818303038152906040528051906020012060001c60036000878152602001908152602001600020600e015414610d4657600080fd5b5b610e8b565b6003600086815260200190815260200160002060010160009054906101000a900473ffffffffffffffffffffffffffffffffffffffff1673ffffffffffffffffffffffffffffffffffffffff163373ffffffffffffffffffffffffffffffffffffffff161415610e8a57828401604051602001808281526020019150506040516020818303038152906040528051906020012060001c60036000878152602001908152602001600020601901541415610e3b5760016003600087815260200190815260200160002060100181905550836003600087815260200190815260200160002060110181905550610e89565b828401604051602001808281526020019150506040516020818303038152906040528051906020012060001c600360008781526020019081526020016000206011015414610e8857600080fd5b5b5b5b600160036000878152602001908152602001600020600f0154148015610ec7575060016003600087815260200190815260200160002060100154145b1561106a578060036000878152602001908152602001600020601601546003600088815260200190815260200160002060150154031180610f355750806003600087815260200190815260200160002060150154600360008881526020019081526020016000206016015403115b15610f3f57600391505b610f7560036000878152602001908152602001600020600e015460036000888152602001908152602001600020601101546114da565b915081600360008781526020019081526020016000206003016001600360008981526020019081526020016000206002015403600b8110610fb257fe5b01819055506003600086815260200190815260200160002060020160008154809291906001019190505550600060036000878152602001908152602001600020600f018190555060006003600087815260200190815260200160002060100181905550600060036000878152602001908152602001600020601d0181905550600a6003600087815260200190815260200160002060180181905550600a60036000878152602001908152602001600020601901819055505b5050505050565b600060025484111561108257600080fd5b600a600360008681526020019081526020016000206002015411156110a657600080fd5b600260036000868152602001908152602001600020601d015414156110ca57600080fd5b600260036000868152602001908152602001600020601a015414801561115157506003600085815260200190815260200160002060000160009054906101000a900473ffffffffffffffffffffffffffffffffffffffff1673ffffffffffffffffffffffffffffffffffffffff163373ffffffffffffffffffffffffffffffffffffffff16145b156112a657600360008581526020019081526020016000206015015460036000868152602001908152602001600020601601819055506001600542604051602001808281526020019150506040516020818303038152906040528051906020012060001c816111bc57fe5b06016003600086815260200190815260200160002060110181905550600260036000868152602001908152602001600020601d018190555061122a60036000868152602001908152602001600020600e015460036000878152602001908152602001600020601c01546114da565b905080600360008681526020019081526020016000206003016003600087815260200190815260200160002060020154600b811061126457fe5b0181905550600060036000868152602001908152602001600020601d0181905550600a60036000868152602001908152602001600020601801819055506114d4565b6003600085815260200190815260200160002060000160009054906101000a900473ffffffffffffffffffffffffffffffffffffffff1673ffffffffffffffffffffffffffffffffffffffff163373ffffffffffffffffffffffffffffffffffffffff1614156113be57600a60036000868152602001908152602001600020601801541461133357600080fd5b828201604051602001808281526020019150506040516020818303038152906040528051906020012060001c6003600086815260200190815260200160002060180181905550426003600086815260200190815260200160002060150181905550600160036000868152602001908152602001600020601d01600082825401925050819055506114d3565b6003600085815260200190815260200160002060010160009054906101000a900473ffffffffffffffffffffffffffffffffffffffff1673ffffffffffffffffffffffffffffffffffffffff163373ffffffffffffffffffffffffffffffffffffffff1614156114d257600a60036000868152602001908152602001600020601901541461144b57600080fd5b828201604051602001808281526020019150506040516020818303038152906040528051906020012060001c6003600086815260200190815260200160002060190181905550426003600086815260200190815260200160002060160181905550600160036000868152602001908152602001600020601d01600082825401925050819055505b5b5b50505050565b600060018314156115285760038214806114f45750600582145b15611502576001905061164b565b60028214806115115750600482145b1561151f576002905061164b565b6003905061164b565b60028314156115745760058214806115405750600182145b1561154e576001905061164b565b600382148061155d5750600482145b1561156b576002905061164b565b6003905061164b565b60038314156115c057600482148061158c5750600282145b1561159a576001905061164b565b60018214806115a95750600582145b156115b7576002905061164b565b6003905061164b565b600483141561160c5760018214806115d85750600282145b156115e6576001905061164b565b60038214806115f55750600582145b15611603576002905061164b565b6003905061164b565b600482148061161b5750600382145b15611629576001905061164b565b60018214806116385750600282145b15611646576002905061164b565b600390505b92915050565b604051806103c00160405280600073ffffffffffffffffffffffffffffffffffffffff168152602001600073ffffffffffffffffffffffffffffffffffffffff168152602001600081526020016116a661175c565b8152602001600081526020016000815260200160008152602001600081526020016000815260200160008152602001600081526020016000815260200160008152602001600081526020016000815260200160008152602001600081526020016000815260200160008152602001600081525090565b82600b810192821561174b579160200282015b8281111561174a57825182559160200191906001019061172f565b5b509050611758919061177f565b5090565b604051806101600160405280600b90602082028038833980820191505090505090565b6117a191905b8082111561179d576000816000905550600101611785565b5090565b9056fea165627a7a723058209026e24316d25ed10c9fe4c6958bc8789b309c7e60173e4ef6c54f4935fe16e40029",
  "source": "pragma solidity ^0.5.0;\n\n\n// creating contract\n//1 --> paper\n//2 --> Lizard\n//3 --> Rock\n//4 --> scissors\n//5 --> spock\n\n\ncontract spsls{\n    \n    \n    address payable public owner;\n    address payable this;\n    uint256 private number_game;\n    constructor() public{\n        owner = msg.sender;\n        number_game = 0;\n    }\n    \n    // add_player1 stores address of player 1\n    // add_player2 stores address of player 2\n    // turn_player Fnestores the turn of the player    \n    // game_result array stores the result of every round of the game\n    // '0'  represents that game is not completed 1 is for player 1 won the game , 2 for player 2 won the game , 3 for the game result draw\n    struct Game{\n        address payable player1;\n        address payable player2;\n        uint256 no_game;\n        uint256 [11] game_result;\n        uint256 val1;\n        uint256 valid1;\n        uint256 valid2;\n        uint256 val2;\n        uint256 status;\n        uint256 oneWon;\n        uint256 twoWon;\n        uint256 player1_time;\n        uint256 player2_time;\n        uint256 draw;\n        uint256 hash1;\n        uint256 hash2;\n        uint256 typeGame;\n        uint256 random;\n        uint256 randomPlayerChoice;\n        uint256 round_status;\n    }\n    \n    \n    // games stores all the games\n    \n    \n    mapping(uint256 => Game) private games;\n\n    // odd value in turn_player represents that 1st player turn , even values shows its turn of 2nd player\n    function new_game(uint256 choice) public payable returns(uint id){\n        \n        require(msg.value== 1 ether );\n        require(msg.sender != owner);\n        Game memory game;\n        \n        // making turn as 1\n\n        // incrementing the game number\n        number_game++;\n        \n        // making the game between the player is 1\n        game.no_game = 1;\n        game.player1 = msg.sender;\n        // making all the 10 results as 0 \n        for(uint i=0;i<10;i++)\n            game.game_result[i] = 0;\n        \n        //setting values as 0 \n        game.val1 = 10;\n        game.val2 = 10;\n        game.oneWon = 0;\n        game.twoWon = 0;\n        game.draw = 0;\n        \n        game.valid1 = 0;\n        game.valid2 = 0;\n        game.hash1 = 10;\n        game.hash2 = 10;\n        // status says whether the 10 rounds are completed or not\n        game.status = 0;\n        game.round_status = 0;\n        game.typeGame = choice;\n        game.random = 1;\n        //emit game_Created(number_game, msg.sender);\n        games[number_game] = game;\n        return number_game;\n        \n    }\n    \n    // functio to store the address of players and checks whether the id of the game is valid or not\n    \n    function join_game(uint _id) public payable returns(uint status_game){\n        \n        require(msg.sender != owner);\n        require(number_game >= _id);\n        require(games[_id].typeGame == 1);        \n                \n        if(games[_id].player2 == address(0)){\n            require(msg.value==  1 ether);\n            games[_id].player2 = msg.sender;\n            return 1;\n        }        \n        return 0;\n    }\n\n    function return_winner(uint win1) public returns (uint win2){\n        return win1;\n    }\n\n    function get_winner(uint _id) public payable returns (uint win){\n        require(games[_id].no_game >= 3);\n        games[_id].status = 1;\n        for(uint256  i=1;i<=10;i++){\n            if(games[_id].game_result[i]==1)\n                games[_id].oneWon++;\n            else if(games[_id].game_result[i]==2)\n                games[_id].twoWon++;\n            else\n                games[_id].draw++;\n        }\n        \n        if(games[_id].typeGame == 1){\n            if( games[_id].oneWon > games[_id].twoWon){\n                address(games[_id].player1).transfer(2 ether);\n                return 1;\n                }\n            else if( games[_id].oneWon < games[_id].twoWon){\n                address(games[_id].player2).transfer(2 ether);\n                return 2;            \n            }\n            else\n                address(owner).transfer(2 ether);\n            return 3;\n        }\n        else if(games[_id].typeGame == 2){\n            if( games[_id].oneWon > games[_id].twoWon){\n                address(games[_id].player1).transfer(2 ether);\n                return 1;\n                }\n            else\n                address(owner).transfer(2 ether);\n            return 3;\n        }\n    }\n   \n    function move(uint256 _id,uint value, uint key) public {\n        uint256 winner_calc;\n        require(_id <= number_game);\n        require(games[_id].no_game <= 10); \n        require(games[_id].round_status != 2);\n        \n        if(games[_id].typeGame == 2 && msg.sender == games[_id].player1){\n            games[_id].player2_time = games[_id].player1_time;\n            games[_id].val2 = uint256(keccak256(abi.encodePacked(block.timestamp)))%5 + 1;\n            games[_id].round_status = 2;\n            winner_calc = winner(games[_id].val1,games[_id].randomPlayerChoice);\n            games[_id].game_result[games[_id].no_game]=winner_calc;\n            games[_id].round_status = 0;\n            games[_id].hash1 = 10;\n\n        }\n\n        else if(msg.sender == games[_id].player1)\n        {\n            require(games[_id].hash1 == 10);\n            games[_id].hash1 = uint256(keccak256(abi.encodePacked(key+value)));\n            games[_id].player1_time = now;\n            games[_id].round_status += 1;\n        }\n        \n        else if(msg.sender == games[_id].player2)\n        {\n            require(games[_id].hash2 == 10);\n            games[_id].hash2 = uint256(keccak256(abi.encodePacked(key+value)));\n            games[_id].player2_time = now;\n            games[_id].round_status += 1;\n            \n        }\n    }\n\n\n    function reveal(uint _id,uint value,uint key) public payable{\n        uint res;\n        uint256 time_out = 10;\n        require(games[_id].round_status == 2);\n        if(msg.sender == games[_id].player1){\n            if(games[_id].hash1 == uint256(keccak256(abi.encodePacked(value+key)))){\n                games[_id].valid1 = 1;\n                games[_id].val1 = value;\n            }\n            else\n                require(games[_id].val1 == uint256(keccak256(abi.encodePacked(value+key))));\n        }\n        else if(msg.sender == games[_id].player2){\n            if(games[_id].hash2 == uint256(keccak256(abi.encodePacked(value+key)))){\n                games[_id].valid2 = 1;\n                games[_id].val2 = value;\n            }\n            else\n                require(games[_id].val2 == uint256(keccak256(abi.encodePacked(value+key))));\n        }\n        if(games[_id].valid1 == 1 && games[_id].valid2 == 1){\n            if(games[_id].player1_time - games[_id].player2_time > time_out || games[_id].player2_time - games[_id].player1_time > time_out ){\n                res = 3; \n            }\n            res = winner(games[_id].val1,games[_id].val2);\n            games[_id].game_result[games[_id].no_game-1] = res;\n            games[_id].no_game++;\n            games[_id].valid1 =0;\n            games[_id].valid2 = 0;\n            games[_id].round_status = 0;\n            games[_id].hash1 = 10;\n            games[_id].hash2 = 10;\n        }\n    }\n\n\n\n        \n    function winner(uint256 choice1,uint256 choice2) private pure returns(uint256 result){\n        \n             if(choice1 == 1)\n            {\n                if(choice2==3 || choice2==5)\n                   return 1;\n                else if(choice2 == 2 || choice2 == 4)\n                   return 2;\n                else\n                    return 3;\n            }\n            else if(choice1 == 2)\n            {\n                if(choice2 == 5 || choice2 == 1)\n                   return 1;\n                else if(choice2 == 3 || choice2 == 4)\n                   return 2;\n                else\n                    return 3;\n            }\n            else if(choice1 == 3)\n            {\n                if(choice2 == 4 || choice2 == 2)\n                   return 1;\n                else if(choice2==1 || choice2==5)\n                   return 2;\n                else\n                    return 3;\n            }\n            else if(choice1 == 4)\n            {\n                if(choice2 == 1 || choice2 == 2)\n                   return 1;\n                else if(choice2==3 || choice2==5)\n                   return 2;\n                else\n                    return 3;\n            }\n            else\n            {\n                if(choice2 == 4 || choice2 == 3)\n                   return 1;\n                else if(choice2==1 || choice2 == 2)\n                   return 2;\n                else\n                    return 3;\n            }\n    }\n}",
  "sourcePath": "/home/siddhartha/Documents/sem8/blockchain/latest/contracts/Spsls.sol",
  "compiler": {
    "name": "solc",
    "version": "0.5.8+commit.23d335f2.Emscripten.clang"
  },
  "schemaVersion": "3.0.16",
  "updatedAt": "2019-09-29T13:15:48.452Z",
  "devdoc": {
    "methods": {}
  },
  "userdoc": {
    "methods": {}
  }
}